0000010FRANCISCO VERISSIMO SANTOS BAPTISTA BORGES       22RUADOSHORNUNCA   2567-09PT50001000007539354000168
0000009MIGUEL NUNO MONETEIRO LEITE BAPTISTA BORGES      65RUADOSHORNUNCA   2567-09PT50001000005539354000123
0000010FELIPA HERMENEGILDO SANTOS BAPTISTA BORGES       54RUADOSHORNUNCA   2567-09PT50001000003539354000113
0000010DUARTE VERISSIMO SANTOS BAPTISTA BORGES          21RUADOSHORNUNCA   2567-09PT50001000004539354000145
